{
  "contractName": "Buyer",
  "abi": [
    {
      "inputs": [
        {
          "internalType": "address",
          "name": "_seller",
          "type": "address"
        },
        {
          "internalType": "address",
          "name": "_freight",
          "type": "address"
        }
      ],
      "stateMutability": "nonpayable",
      "type": "constructor"
    },
    {
      "inputs": [
        {
          "internalType": "uint256",
          "name": "_ProductID",
          "type": "uint256"
        }
      ],
      "name": "requestQuote",
      "outputs": [
        {
          "internalType": "uint256",
          "name": "",
          "type": "uint256"
        },
        {
          "internalType": "string",
          "name": "",
          "type": "string"
        },
        {
          "internalType": "string",
          "name": "",
          "type": "string"
        },
        {
          "internalType": "bool",
          "name": "",
          "type": "bool"
        },
        {
          "internalType": "address",
          "name": "",
          "type": "address"
        },
        {
          "internalType": "uint256",
          "name": "",
          "type": "uint256"
        }
      ],
      "stateMutability": "view",
      "type": "function",
      "constant": true
    },
    {
      "inputs": [
        {
          "internalType": "uint256",
          "name": "number",
          "type": "uint256"
        }
      ],
      "name": "queryOrder",
      "outputs": [
        {
          "internalType": "string",
          "name": "name",
          "type": "string"
        },
        {
          "internalType": "uint256",
          "name": "pp",
          "type": "uint256"
        },
        {
          "internalType": "address",
          "name": "buyer",
          "type": "address"
        }
      ],
      "stateMutability": "view",
      "type": "function",
      "constant": true
    },
    {
      "inputs": [
        {
          "internalType": "uint256",
          "name": "pid",
          "type": "uint256"
        },
        {
          "internalType": "string",
          "name": "name",
          "type": "string"
        },
        {
          "internalType": "string",
          "name": "addss",
          "type": "string"
        },
        {
          "internalType": "uint40",
          "name": "ph",
          "type": "uint40"
        }
      ],
      "name": "Buy",
      "outputs": [],
      "stateMutability": "payable",
      "type": "function",
      "payable": true
    },
    {
      "inputs": [
        {
          "internalType": "uint256",
          "name": "OID",
          "type": "uint256"
        }
      ],
      "name": "BookFreighter",
      "outputs": [],
      "stateMutability": "payable",
      "type": "function",
      "payable": true
    },
    {
      "inputs": [
        {
          "internalType": "uint256",
          "name": "oid",
          "type": "uint256"
        }
      ],
      "name": "getInvoice",
      "outputs": [
        {
          "internalType": "uint256",
          "name": "",
          "type": "uint256"
        },
        {
          "internalType": "uint256",
          "name": "",
          "type": "uint256"
        },
        {
          "internalType": "string",
          "name": "",
          "type": "string"
        },
        {
          "internalType": "uint256",
          "name": "",
          "type": "uint256"
        },
        {
          "internalType": "address",
          "name": "",
          "type": "address"
        },
        {
          "internalType": "bool",
          "name": "",
          "type": "bool"
        }
      ],
      "stateMutability": "view",
      "type": "function",
      "constant": true
    }
  ],
  "bytecode": "0x60806040523480156200001157600080fd5b50604051620013b1380380620013b18339818101604052810190620000379190620001ac565b816000806101000a81548173ffffffffffffffffffffffffffffffffffffffff021916908373ffffffffffffffffffffffffffffffffffffffff16021790555081600160006101000a81548173ffffffffffffffffffffffffffffffffffffffff021916908373ffffffffffffffffffffffffffffffffffffffff16021790555080600260006101000a81548173ffffffffffffffffffffffffffffffffffffffff021916908373ffffffffffffffffffffffffffffffffffffffff16021790555080600360006101000a81548173ffffffffffffffffffffffffffffffffffffffff021916908373ffffffffffffffffffffffffffffffffffffffff1602179055505050620001f3565b600080fd5b600073ffffffffffffffffffffffffffffffffffffffff82169050919050565b6000620001748262000147565b9050919050565b620001868162000167565b81146200019257600080fd5b50565b600081519050620001a6816200017b565b92915050565b60008060408385031215620001c657620001c562000142565b5b6000620001d68582860162000195565b9250506020620001e98582860162000195565b9150509250929050565b6111ae80620002036000396000f3fe60806040526004361061004a5760003560e01c80633a23cc0a1461004f57806382e566d014610091578063af9d9a42146100d3578063c5cc426a146100ef578063ceccc6761461012e575b600080fd5b34801561005b57600080fd5b5061007660048036038101906100719190610733565b61014a565b6040516100889695949392919061085b565b60405180910390f35b34801561009d57600080fd5b506100b860048036038101906100b39190610733565b61020a565b6040516100ca969594939291906108c3565b60405180910390f35b6100ed60048036038101906100e89190610aa4565b6102ca565b005b3480156100fb57600080fd5b5061011660048036038101906101119190610733565b610473565b60405161012593929190610b43565b60405180910390f35b61014860048036038101906101439190610733565b610526565b005b60008060606000806000600160009054906101000a900473ffffffffffffffffffffffffffffffffffffffff1673ffffffffffffffffffffffffffffffffffffffff1663e041bc4a886040518263ffffffff1660e01b81526004016101af9190610b81565b600060405180830381865afa1580156101cc573d6000803e3d6000fd5b505050506040513d6000823e3d601f19601f820116820180604052508101906101f59190610c79565b95509550955095509550955091939550919395565b60006060806000806000600160009054906101000a900473ffffffffffffffffffffffffffffffffffffffff1673ffffffffffffffffffffffffffffffffffffffff166382e566d0886040518263ffffffff1660e01b815260040161026f9190610b81565b600060405180830381865afa15801561028c573d6000803e3d6000fd5b505050506040513d6000823e3d601f19601f820116820180604052508101906102b59190610d22565b95509550955095509550955091939550919395565b6000339050600080600160009054906101000a900473ffffffffffffffffffffffffffffffffffffffff1673ffffffffffffffffffffffffffffffffffffffff166378e47ab688858989896040518663ffffffff1660e01b8152600401610335959493929190610df6565b60408051808303816000875af1158015610353573d6000803e3d6000fd5b505050506040513d601f19601f820116820180604052508101906103779190610e57565b915091508134146103bd576040517f08c379a00000000000000000000000000000000000000000000000000000000081526004016103b490610ee3565b60405180910390fd5b60008173ffffffffffffffffffffffffffffffffffffffff16346040516103e390610f34565b60006040518083038185875af1925050503d8060008114610420576040519150601f19603f3d011682016040523d82523d6000602084013e610425565b606091505b5050905080610469576040517f08c379a000000000000000000000000000000000000000000000000000000000815260040161046090610f95565b60405180910390fd5b5050505050505050565b6060600080600160009054906101000a900473ffffffffffffffffffffffffffffffffffffffff1673ffffffffffffffffffffffffffffffffffffffff1663c5cc426a856040518263ffffffff1660e01b81526004016104d39190610b81565b600060405180830381865afa1580156104f0573d6000803e3d6000fd5b505050506040513d6000823e3d601f19601f820116820180604052508101906105199190610fb5565b9250925092509193909250565b600080600360009054906101000a900473ffffffffffffffffffffffffffffffffffffffff1673ffffffffffffffffffffffffffffffffffffffff1663eb2832618460008054906101000a900473ffffffffffffffffffffffffffffffffffffffff166040518363ffffffff1660e01b81526004016105a6929190611024565b6060604051808303816000875af11580156105c5573d6000803e3d6000fd5b505050506040513d601f19601f820116820180604052508101906105e9919061104d565b9250925050813414610630576040517f08c379a0000000000000000000000000000000000000000000000000000000008152600401610627906110ec565b60405180910390fd5b60008173ffffffffffffffffffffffffffffffffffffffff163460405161065690610f34565b60006040518083038185875af1925050503d8060008114610693576040519150601f19603f3d011682016040523d82523d6000602084013e610698565b606091505b5050905060011515811515146106e3576040517f08c379a00000000000000000000000000000000000000000000000000000000081526004016106da90611158565b60405180910390fd5b50505050565b6000604051905090565b600080fd5b600080fd5b6000819050919050565b610710816106fd565b811461071b57600080fd5b50565b60008135905061072d81610707565b92915050565b600060208284031215610749576107486106f3565b5b60006107578482850161071e565b91505092915050565b610769816106fd565b82525050565b600081519050919050565b600082825260208201905092915050565b60005b838110156107a957808201518184015260208101905061078e565b60008484015250505050565b6000601f19601f8301169050919050565b60006107d18261076f565b6107db818561077a565b93506107eb81856020860161078b565b6107f4816107b5565b840191505092915050565b600073ffffffffffffffffffffffffffffffffffffffff82169050919050565b600061082a826107ff565b9050919050565b61083a8161081f565b82525050565b60008115159050919050565b61085581610840565b82525050565b600060c0820190506108706000830189610760565b61087d6020830188610760565b818103604083015261088f81876107c6565b905061089e6060830186610760565b6108ab6080830185610831565b6108b860a083018461084c565b979650505050505050565b600060c0820190506108d86000830189610760565b81810360208301526108ea81886107c6565b905081810360408301526108fe81876107c6565b905061090d606083018661084c565b61091a6080830185610831565b61092760a0830184610760565b979650505050505050565b600080fd5b600080fd5b7f4e487b7100000000000000000000000000000000000000000000000000000000600052604160045260246000fd5b610974826107b5565b810181811067ffffffffffffffff821117156109935761099261093c565b5b80604052505050565b60006109a66106e9565b90506109b2828261096b565b919050565b600067ffffffffffffffff8211156109d2576109d161093c565b5b6109db826107b5565b9050602081019050919050565b82818337600083830152505050565b6000610a0a610a05846109b7565b61099c565b905082815260208101848484011115610a2657610a25610937565b5b610a318482856109e8565b509392505050565b600082601f830112610a4e57610a4d610932565b5b8135610a5e8482602086016109f7565b91505092915050565b600064ffffffffff82169050919050565b610a8181610a67565b8114610a8c57600080fd5b50565b600081359050610a9e81610a78565b92915050565b60008060008060808587031215610abe57610abd6106f3565b5b6000610acc8782880161071e565b945050602085013567ffffffffffffffff811115610aed57610aec6106f8565b5b610af987828801610a39565b935050604085013567ffffffffffffffff811115610b1a57610b196106f8565b5b610b2687828801610a39565b9250506060610b3787828801610a8f565b91505092959194509250565b60006060820190508181036000830152610b5d81866107c6565b9050610b6c6020830185610760565b610b796040830184610831565b949350505050565b6000602082019050610b966000830184610760565b92915050565b600081519050610bab81610707565b92915050565b6000610bc4610bbf846109b7565b61099c565b905082815260208101848484011115610be057610bdf610937565b5b610beb84828561078b565b509392505050565b600082601f830112610c0857610c07610932565b5b8151610c18848260208601610bb1565b91505092915050565b610c2a8161081f565b8114610c3557600080fd5b50565b600081519050610c4781610c21565b92915050565b610c5681610840565b8114610c6157600080fd5b50565b600081519050610c7381610c4d565b92915050565b60008060008060008060c08789031215610c9657610c956106f3565b5b6000610ca489828a01610b9c565b9650506020610cb589828a01610b9c565b955050604087015167ffffffffffffffff811115610cd657610cd56106f8565b5b610ce289828a01610bf3565b9450506060610cf389828a01610b9c565b9350506080610d0489828a01610c38565b92505060a0610d1589828a01610c64565b9150509295509295509295565b60008060008060008060c08789031215610d3f57610d3e6106f3565b5b6000610d4d89828a01610b9c565b965050602087015167ffffffffffffffff811115610d6e57610d6d6106f8565b5b610d7a89828a01610bf3565b955050604087015167ffffffffffffffff811115610d9b57610d9a6106f8565b5b610da789828a01610bf3565b9450506060610db889828a01610c64565b9350506080610dc989828a01610c38565b92505060a0610dda89828a01610b9c565b9150509295509295509295565b610df081610a67565b82525050565b600060a082019050610e0b6000830188610760565b610e186020830187610831565b8181036040830152610e2a81866107c6565b90508181036060830152610e3e81856107c6565b9050610e4d6080830184610de7565b9695505050505050565b60008060408385031215610e6e57610e6d6106f3565b5b6000610e7c85828601610b9c565b9250506020610e8d85828601610c38565b9150509250929050565b7f4c6f772046756e64000000000000000000000000000000000000000000000000600082015250565b6000610ecd60088361077a565b9150610ed882610e97565b602082019050919050565b60006020820190508181036000830152610efc81610ec0565b9050919050565b600081905092915050565b50565b6000610f1e600083610f03565b9150610f2982610f0e565b600082019050919050565b6000610f3f82610f11565b9150819050919050565b7f427579206661696c656421000000000000000000000000000000000000000000600082015250565b6000610f7f600b8361077a565b9150610f8a82610f49565b602082019050919050565b60006020820190508181036000830152610fae81610f72565b9050919050565b600080600060608486031215610fce57610fcd6106f3565b5b600084015167ffffffffffffffff811115610fec57610feb6106f8565b5b610ff886828701610bf3565b935050602061100986828701610b9c565b925050604061101a86828701610c38565b9150509250925092565b60006040820190506110396000830185610760565b6110466020830184610831565b9392505050565b600080600060608486031215611066576110656106f3565b5b600061107486828701610c64565b935050602061108586828701610b9c565b925050604061109686828701610c38565b9150509250925092565b7f696e76616c696446756e64000000000000000000000000000000000000000000600082015250565b60006110d6600b8361077a565b91506110e1826110a0565b602082019050919050565b60006020820190508181036000830152611105816110c9565b9050919050565b7f6661696c65640000000000000000000000000000000000000000000000000000600082015250565b600061114260068361077a565b915061114d8261110c565b602082019050919050565b6000602082019050818103600083015261117181611135565b905091905056fea264697066735822122004d1e41f8abd434495765831040f2073f4f44e2649be96909e4b82e187be383c64736f6c63430008110033",
  "immutableReferences": {},
  "source": "// SPDX-License-Identifier: MIT\r\nimport \"./Seller.sol\";\r\nimport \"./Freight.sol\";\r\n\r\npragma solidity 0.8.17;\r\n\r\ncontract Buyer {\r\n    // Seller\r\n    address seller;\r\n    Seller s;\r\n    address freight;\r\n    Freight f;\r\nconstructor(address _seller,address _freight) {\r\n    seller = _seller;\r\n    s = Seller(_seller);\r\n    freight = _freight;\r\n    f = Freight(_freight);\r\n}\r\n\r\nfunction requestQuote(uint _ProductID) public view returns (\r\n        uint, \r\n        string memory, \r\n        string memory, \r\n        bool, \r\n        address,\r\n        uint){\r\n        \r\n        return s.requestQuote(_ProductID);\r\n}\r\n\r\n// function sendOrder(string memory goods, uint quantity) public {\r\n\r\n\r\n// }\r\n\r\nfunction queryOrder(uint number)  external view returns\r\n(string memory name,\r\nuint pp,\r\naddress buyer\r\n)  {\r\n\r\n    // Return the order data\r\n    return s.queryOrder(number);\r\n}\r\n\r\n\r\nfunction Buy(uint pid, string memory name, string memory addss,uint40 ph) public payable {address _Buyer = msg.sender;\r\n        (uint num, address _seller) = s.Buy(pid,_Buyer,name,addss,ph);\r\n        require(msg.value == num, \"Low Fund\");\r\n        (bool success,) = (_seller).call{value: msg.value}(\"\");\r\n        require(success,\"Buy failed!\");\r\n}\r\n\r\nfunction BookFreighter(uint OID) public payable {\r\n    (,uint freighterPrice, address freightAccount) = f.bookFreight(OID, seller);\r\n    require(msg.value == freighterPrice, \"invalidFund\");\r\n    (bool done,) = freightAccount.call{value: msg.value}(\"\");\r\n    require(done == true, \"failed\");\r\n}\r\n\r\nfunction getInvoice(uint oid) external view returns \r\n(uint,\r\nuint,\r\nstring memory,\r\nuint,\r\naddress,\r\nbool \r\n) {\r\n\r\n    // Return the invoice data\r\n    return s.sendInvoice(oid);\r\n}\r\n\r\n\r\n}",
  "sourcePath": "C:\\Users\\sakha\\OneDrive\\Documents\\Logistics_Tracing_App\\contracts\\Buyer.sol",
  "compiler": {
    "name": "solc",
    "version": "0.8.17+commit.8df45f5f.Emscripten.clang"
  },
  "schemaVersion": "3.4.9",
  "updatedAt": "2022-10-22T09:07:59.441Z",
  "networkType": "ethereum",
  "devdoc": {
    "kind": "dev",
    "methods": {},
    "version": 1
  },
  "userdoc": {
    "kind": "user",
    "methods": {},
    "version": 1
  }
}