{
  "contractName": "Freight",
  "abi": [
    {
      "inputs": [
        {
          "internalType": "address",
          "name": "adr",
          "type": "address"
        }
      ],
      "stateMutability": "nonpayable",
      "type": "constructor"
    },
    {
      "inputs": [
        {
          "internalType": "uint256",
          "name": "",
          "type": "uint256"
        }
      ],
      "name": "ProdDetails",
      "outputs": [
        {
          "internalType": "uint256",
          "name": "expoid",
          "type": "uint256"
        },
        {
          "internalType": "uint256",
          "name": "oid",
          "type": "uint256"
        },
        {
          "internalType": "uint256",
          "name": "pid",
          "type": "uint256"
        },
        {
          "internalType": "bool",
          "name": "handOver",
          "type": "bool"
        },
        {
          "internalType": "bool",
          "name": "delstrat",
          "type": "bool"
        },
        {
          "internalType": "bool",
          "name": "expoClr",
          "type": "bool"
        },
        {
          "internalType": "bool",
          "name": "impoClr",
          "type": "bool"
        },
        {
          "internalType": "bool",
          "name": "delivered",
          "type": "bool"
        }
      ],
      "stateMutability": "view",
      "type": "function"
    },
    {
      "inputs": [
        {
          "internalType": "uint256",
          "name": "oid",
          "type": "uint256"
        },
        {
          "internalType": "address",
          "name": "seller",
          "type": "address"
        }
      ],
      "name": "bookFreight",
      "outputs": [
        {
          "internalType": "bool",
          "name": "",
          "type": "bool"
        },
        {
          "internalType": "uint256",
          "name": "",
          "type": "uint256"
        },
        {
          "internalType": "address",
          "name": "",
          "type": "address"
        }
      ],
      "stateMutability": "nonpayable",
      "type": "function"
    },
    {
      "inputs": [
        {
          "internalType": "uint256",
          "name": "oid",
          "type": "uint256"
        }
      ],
      "name": "pickOrder",
      "outputs": [],
      "stateMutability": "nonpayable",
      "type": "function"
    },
    {
      "inputs": [
        {
          "internalType": "uint256",
          "name": "expoid",
          "type": "uint256"
        }
      ],
      "name": "stratdel",
      "outputs": [],
      "stateMutability": "nonpayable",
      "type": "function"
    },
    {
      "inputs": [
        {
          "internalType": "uint256",
          "name": "expoid",
          "type": "uint256"
        }
      ],
      "name": "expoClearance",
      "outputs": [],
      "stateMutability": "nonpayable",
      "type": "function"
    },
    {
      "inputs": [
        {
          "internalType": "uint256",
          "name": "_ExpoID",
          "type": "uint256"
        }
      ],
      "name": "impoClearance",
      "outputs": [],
      "stateMutability": "nonpayable",
      "type": "function"
    }
  ],
  "bytecode": "0x608060405260018055600a6003553480156200001a57600080fd5b5060405162001232380380620012328339818101604052810190620000409190620000f2565b80600260006101000a81548173ffffffffffffffffffffffffffffffffffffffff021916908373ffffffffffffffffffffffffffffffffffffffff1602179055505062000124565b600080fd5b600073ffffffffffffffffffffffffffffffffffffffff82169050919050565b6000620000ba826200008d565b9050919050565b620000cc81620000ad565b8114620000d857600080fd5b50565b600081519050620000ec81620000c1565b92915050565b6000602082840312156200010b576200010a62000088565b5b60006200011b84828501620000db565b91505092915050565b6110fe80620001346000396000f3fe608060405234801561001057600080fd5b50600436106100625760003560e01c806330144eaf146100675780633543cad71461009e5780636df07223146100ba578063a1fd98b6146100d6578063bce94f48146100f2578063eb2832611461010e575b600080fd5b610081600480360381019061007c91906108d5565b610140565b60405161009598979695949392919061092c565b60405180910390f35b6100b860048036038101906100b391906108d5565b6101c9565b005b6100d460048036038101906100cf91906108d5565b610438565b005b6100f060048036038101906100eb91906108d5565b610529565b005b61010c600480360381019061010791906108d5565b6105eb565b005b61012860048036038101906101239190610a08565b6106ad565b60405161013793929190610a57565b60405180910390f35b60066020528060005260406000206000915090508060000154908060010154908060020154908060030160009054906101000a900460ff16908060030160019054906101000a900460ff16908060030160029054906101000a900460ff16908060030160039054906101000a900460ff16908060030160049054906101000a900460ff16905088565b600260009054906101000a900473ffffffffffffffffffffffffffffffffffffffff1673ffffffffffffffffffffffffffffffffffffffff163373ffffffffffffffffffffffffffffffffffffffff1614610259576040517f08c379a000000000000000000000000000000000000000000000000000000000815260040161025090610aeb565b60405180910390fd5b6000600460009054906101000a900473ffffffffffffffffffffffffffffffffffffffff1673ffffffffffffffffffffffffffffffffffffffff166328c0227c836040518263ffffffff1660e01b81526004016102b69190610b0b565b6020604051808303816000875af11580156102d5573d6000803e3d6000fd5b505050506040513d601f19601f820116820180604052508101906102f99190610b3b565b905060405180610100016040528060015481526020018381526020018281526020016001151581526020016000151581526020016000151581526020016000151581526020016000151581525060066000600154815260200190815260200160002060008201518160000155602082015181600101556040820151816002015560608201518160030160006101000a81548160ff02191690831515021790555060808201518160030160016101000a81548160ff02191690831515021790555060a08201518160030160026101000a81548160ff02191690831515021790555060c08201518160030160036101000a81548160ff02191690831515021790555060e08201518160030160046101000a81548160ff0219169083151502179055509050506001600081548092919061042f90610b97565b91905055505050565b600260009054906101000a900473ffffffffffffffffffffffffffffffffffffffff1673ffffffffffffffffffffffffffffffffffffffff163373ffffffffffffffffffffffffffffffffffffffff16146104c8576040517f08c379a00000000000000000000000000000000000000000000000000000000081526004016104bf90610aeb565b60405180910390fd5b60016006600083815260200190815260200160002060030160036101000a81548160ff02191690831515021790555060016006600083815260200190815260200160002060030160046101000a81548160ff02191690831515021790555050565b600260009054906101000a900473ffffffffffffffffffffffffffffffffffffffff1673ffffffffffffffffffffffffffffffffffffffff163373ffffffffffffffffffffffffffffffffffffffff16146105b9576040517f08c379a00000000000000000000000000000000000000000000000000000000081526004016105b090610aeb565b60405180910390fd5b60016006600083815260200190815260200160002060030160016101000a81548160ff02191690831515021790555050565b600260009054906101000a900473ffffffffffffffffffffffffffffffffffffffff1673ffffffffffffffffffffffffffffffffffffffff163373ffffffffffffffffffffffffffffffffffffffff161461067b576040517f08c379a000000000000000000000000000000000000000000000000000000000815260040161067290610aeb565b60405180910390fd5b60016006600083815260200190815260200160002060030160026101000a81548160ff02191690831515021790555050565b600080600083600460006101000a81548173ffffffffffffffffffffffffffffffffffffffff021916908373ffffffffffffffffffffffffffffffffffffffff160217905550600080600080600460009054906101000a900473ffffffffffffffffffffffffffffffffffffffff1673ffffffffffffffffffffffffffffffffffffffff1663ac23a7438a6040518263ffffffff1660e01b81526004016107549190610b0b565b600060405180830381865afa158015610771573d6000803e3d6000fd5b505050506040513d6000823e3d601f19601f8201168201806040525081019061079a9190610d40565b93509350935093506040518060c001604052808a815260200185815260200183815260200182815260200184815260200160011515815250600560008b81526020019081526020016000206000820151816000015560208201518160010155604082015181600201908161080e9190610ff6565b5060608201518160030155608082015181600401908161082e9190610ff6565b5060a08201518160050160006101000a81548160ff0219169083151502179055509050506001600354600260009054906101000a900473ffffffffffffffffffffffffffffffffffffffff16965096509650505050509250925092565b6000604051905090565b600080fd5b600080fd5b6000819050919050565b6108b28161089f565b81146108bd57600080fd5b50565b6000813590506108cf816108a9565b92915050565b6000602082840312156108eb576108ea610895565b5b60006108f9848285016108c0565b91505092915050565b61090b8161089f565b82525050565b60008115159050919050565b61092681610911565b82525050565b600061010082019050610942600083018b610902565b61094f602083018a610902565b61095c6040830189610902565b610969606083018861091d565b610976608083018761091d565b61098360a083018661091d565b61099060c083018561091d565b61099d60e083018461091d565b9998505050505050505050565b600073ffffffffffffffffffffffffffffffffffffffff82169050919050565b60006109d5826109aa565b9050919050565b6109e5816109ca565b81146109f057600080fd5b50565b600081359050610a02816109dc565b92915050565b60008060408385031215610a1f57610a1e610895565b5b6000610a2d858286016108c0565b9250506020610a3e858286016109f3565b9150509250929050565b610a51816109ca565b82525050565b6000606082019050610a6c600083018661091d565b610a796020830185610902565b610a866040830184610a48565b949350505050565b600082825260208201905092915050565b7f4e6f742046726569676874657200000000000000000000000000000000000000600082015250565b6000610ad5600d83610a8e565b9150610ae082610a9f565b602082019050919050565b60006020820190508181036000830152610b0481610ac8565b9050919050565b6000602082019050610b206000830184610902565b92915050565b600081519050610b35816108a9565b92915050565b600060208284031215610b5157610b50610895565b5b6000610b5f84828501610b26565b91505092915050565b7f4e487b7100000000000000000000000000000000000000000000000000000000600052601160045260246000fd5b6000610ba28261089f565b91507fffffffffffffffffffffffffffffffffffffffffffffffffffffffffffffffff8203610bd457610bd3610b68565b5b600182019050919050565b600080fd5b600080fd5b6000601f19601f8301169050919050565b7f4e487b7100000000000000000000000000000000000000000000000000000000600052604160045260246000fd5b610c3282610be9565b810181811067ffffffffffffffff82111715610c5157610c50610bfa565b5b80604052505050565b6000610c6461088b565b9050610c708282610c29565b919050565b600067ffffffffffffffff821115610c9057610c8f610bfa565b5b610c9982610be9565b9050602081019050919050565b60005b83811015610cc4578082015181840152602081019050610ca9565b60008484015250505050565b6000610ce3610cde84610c75565b610c5a565b905082815260208101848484011115610cff57610cfe610be4565b5b610d0a848285610ca6565b509392505050565b600082601f830112610d2757610d26610bdf565b5b8151610d37848260208601610cd0565b91505092915050565b60008060008060808587031215610d5a57610d59610895565b5b6000610d6887828801610b26565b945050602085015167ffffffffffffffff811115610d8957610d8861089a565b5b610d9587828801610d12565b935050604085015167ffffffffffffffff811115610db657610db561089a565b5b610dc287828801610d12565b9250506060610dd387828801610b26565b91505092959194509250565b600081519050919050565b7f4e487b7100000000000000000000000000000000000000000000000000000000600052602260045260246000fd5b60006002820490506001821680610e3157607f821691505b602082108103610e4457610e43610dea565b5b50919050565b60008190508160005260206000209050919050565b60006020601f8301049050919050565b600082821b905092915050565b600060088302610eac7fffffffffffffffffffffffffffffffffffffffffffffffffffffffffffffffff82610e6f565b610eb68683610e6f565b95508019841693508086168417925050509392505050565b6000819050919050565b6000610ef3610eee610ee98461089f565b610ece565b61089f565b9050919050565b6000819050919050565b610f0d83610ed8565b610f21610f1982610efa565b848454610e7c565b825550505050565b600090565b610f36610f29565b610f41818484610f04565b505050565b5b81811015610f6557610f5a600082610f2e565b600181019050610f47565b5050565b601f821115610faa57610f7b81610e4a565b610f8484610e5f565b81016020851015610f93578190505b610fa7610f9f85610e5f565b830182610f46565b50505b505050565b600082821c905092915050565b6000610fcd60001984600802610faf565b1980831691505092915050565b6000610fe68383610fbc565b9150826002028217905092915050565b610fff82610ddf565b67ffffffffffffffff81111561101857611017610bfa565b5b6110228254610e19565b61102d828285610f69565b600060209050601f831160018114611060576000841561104e578287015190505b6110588582610fda565b8655506110c0565b601f19841661106e86610e4a565b60005b8281101561109657848901518255600182019150602085019450602081019050611071565b868310156110b357848901516110af601f891682610fbc565b8355505b6001600288020188555050505b50505050505056fea2646970667358221220e0a5353976651079e23617e3b4253eeb00b5cfd630eecad6ba7f229b2e03303864736f6c63430008110033",
  "immutableReferences": {},
  "source": "// SPDX-License-Identifier: MIT\r\n\r\nimport \"./Buyer.sol\";\r\nimport \"./Seller.sol\";\r\n\r\npragma solidity ^0.8.17;\r\n\r\ncontract Freight{\r\n    Buyer B;\r\n    uint ExpoCount = 1;\r\n    // freight forwarder address\r\n    address fAcc; \r\n    uint fc = 10;\r\n    Seller s;\r\n    // frieght booking struct\r\n    struct freightBook{\r\n        uint oid;\r\n        uint pid;\r\n        string name;\r\n        uint ph;\r\n        string addr;\r\n        // string email;\r\n        bool bkd;\r\n    }\r\n    mapping (uint => freightBook) internal FBooks;\r\n\r\n    struct productDetails{\r\n        uint expoid;\r\n        uint oid;\r\n        uint pid;\r\n        bool handOver;\r\n        bool delstrat;\r\n        bool expoClr;\r\n        bool impoClr;\r\n        bool delivered;\r\n    }\r\n    mapping (uint => productDetails) public ProdDetails;\r\n\r\n    constructor (address adr){\r\n        fAcc = adr;\r\n    }\r\n\r\n    modifier onlyFreighter() {\r\n        require(msg.sender == fAcc,\"Not Freighter\");\r\n        _;\r\n    }\r\n\r\n    function bookFreight(uint oid, address seller) external returns (bool,uint,address){\r\n        s = Seller(seller);\r\n        (uint pid,string memory addr,string memory name,uint ph) = s.fv(oid);\r\n        FBooks[oid] = freightBook(oid,pid,name,ph,addr,true);\r\n        return (true,fc,fAcc);\r\n    }\r\n\r\n    function pickOrder(uint oid) public onlyFreighter {\r\n        uint pID = s.handOverOrder(oid);\r\n        ProdDetails[ExpoCount] = productDetails(ExpoCount,oid,pID,true,false,false,false,false);\r\n        ExpoCount++;\r\n    }\r\n\r\n    function stratdel(uint expoid) public onlyFreighter {\r\n        ProdDetails[expoid].delstrat = true;\r\n    }\r\n\r\n    function expoClearance(uint expoid) public onlyFreighter {\r\n        ProdDetails[expoid].expoClr = true;\r\n    }\r\n\r\n    function impoClearance(uint _ExpoID) public onlyFreighter {\r\n        ProdDetails[_ExpoID].impoClr = true; \r\n\t    ProdDetails[_ExpoID].delivered = true;\r\n    }\r\n    \r\n}",
  "sourcePath": "C:\\Users\\sakha\\OneDrive\\Documents\\Logistics_Tracing_App\\contracts\\Freight.sol",
  "compiler": {
    "name": "solc",
    "version": "0.8.17+commit.8df45f5f.Emscripten.clang"
  },
  "schemaVersion": "3.4.9",
  "updatedAt": "2022-10-27T08:47:57.637Z",
  "devdoc": {
    "kind": "dev",
    "methods": {},
    "version": 1
  },
  "userdoc": {
    "kind": "user",
    "methods": {},
    "version": 1
  }
}