{
  "contractName": "Seller",
  "abi": [
    {
      "inputs": [
        {
          "internalType": "address",
          "name": "_owner",
          "type": "address"
        }
      ],
      "stateMutability": "nonpayable",
      "type": "constructor"
    },
    {
      "inputs": [
        {
          "internalType": "uint256",
          "name": "",
          "type": "uint256"
        }
      ],
      "name": "Ods",
      "outputs": [
        {
          "internalType": "uint256",
          "name": "pid",
          "type": "uint256"
        },
        {
          "internalType": "uint256",
          "name": "oid",
          "type": "uint256"
        },
        {
          "internalType": "string",
          "name": "name",
          "type": "string"
        },
        {
          "internalType": "uint256",
          "name": "pp",
          "type": "uint256"
        },
        {
          "internalType": "address",
          "name": "addr",
          "type": "address"
        },
        {
          "internalType": "bool",
          "name": "odd",
          "type": "bool"
        },
        {
          "internalType": "bool",
          "name": "packd",
          "type": "bool"
        },
        {
          "internalType": "bool",
          "name": "handOvr",
          "type": "bool"
        }
      ],
      "stateMutability": "view",
      "type": "function"
    },
    {
      "inputs": [
        {
          "internalType": "uint256",
          "name": "",
          "type": "uint256"
        }
      ],
      "name": "Products",
      "outputs": [
        {
          "internalType": "uint256",
          "name": "id",
          "type": "uint256"
        },
        {
          "internalType": "string",
          "name": "name",
          "type": "string"
        },
        {
          "internalType": "string",
          "name": "desc",
          "type": "string"
        },
        {
          "internalType": "bool",
          "name": "sold",
          "type": "bool"
        },
        {
          "internalType": "uint256",
          "name": "pp",
          "type": "uint256"
        },
        {
          "internalType": "address",
          "name": "buyer",
          "type": "address"
        },
        {
          "internalType": "uint256",
          "name": "timestamp",
          "type": "uint256"
        }
      ],
      "stateMutability": "view",
      "type": "function"
    },
    {
      "inputs": [
        {
          "internalType": "uint256",
          "name": "",
          "type": "uint256"
        }
      ],
      "name": "products_list",
      "outputs": [
        {
          "internalType": "uint256",
          "name": "id",
          "type": "uint256"
        },
        {
          "internalType": "string",
          "name": "name",
          "type": "string"
        },
        {
          "internalType": "string",
          "name": "desc",
          "type": "string"
        },
        {
          "internalType": "bool",
          "name": "sold",
          "type": "bool"
        },
        {
          "internalType": "uint256",
          "name": "pp",
          "type": "uint256"
        },
        {
          "internalType": "address",
          "name": "buyer",
          "type": "address"
        },
        {
          "internalType": "uint256",
          "name": "timestamp",
          "type": "uint256"
        }
      ],
      "stateMutability": "view",
      "type": "function"
    },
    {
      "inputs": [
        {
          "internalType": "string",
          "name": "name",
          "type": "string"
        },
        {
          "internalType": "string",
          "name": "desc",
          "type": "string"
        },
        {
          "internalType": "uint256",
          "name": "pp",
          "type": "uint256"
        }
      ],
      "name": "addProduct",
      "outputs": [],
      "stateMutability": "nonpayable",
      "type": "function"
    },
    {
      "inputs": [
        {
          "internalType": "uint256",
          "name": "_ProductID",
          "type": "uint256"
        }
      ],
      "name": "requestQuote",
      "outputs": [
        {
          "internalType": "uint256",
          "name": "",
          "type": "uint256"
        },
        {
          "internalType": "string",
          "name": "",
          "type": "string"
        },
        {
          "internalType": "string",
          "name": "",
          "type": "string"
        },
        {
          "internalType": "bool",
          "name": "",
          "type": "bool"
        },
        {
          "internalType": "address",
          "name": "",
          "type": "address"
        },
        {
          "internalType": "uint256",
          "name": "",
          "type": "uint256"
        }
      ],
      "stateMutability": "view",
      "type": "function"
    },
    {
      "inputs": [
        {
          "internalType": "uint256",
          "name": "number",
          "type": "uint256"
        }
      ],
      "name": "queryOrder",
      "outputs": [
        {
          "internalType": "string",
          "name": "name",
          "type": "string"
        },
        {
          "internalType": "uint256",
          "name": "pp",
          "type": "uint256"
        },
        {
          "internalType": "address",
          "name": "buyer",
          "type": "address"
        }
      ],
      "stateMutability": "view",
      "type": "function"
    },
    {
      "inputs": [
        {
          "internalType": "uint256",
          "name": "pID",
          "type": "uint256"
        },
        {
          "internalType": "address",
          "name": "_Buyer",
          "type": "address"
        },
        {
          "internalType": "string",
          "name": "_name",
          "type": "string"
        },
        {
          "internalType": "string",
          "name": "_address",
          "type": "string"
        },
        {
          "internalType": "uint40",
          "name": "_phone",
          "type": "uint40"
        }
      ],
      "name": "Buy",
      "outputs": [
        {
          "internalType": "uint256",
          "name": "",
          "type": "uint256"
        },
        {
          "internalType": "address",
          "name": "",
          "type": "address"
        }
      ],
      "stateMutability": "payable",
      "type": "function"
    },
    {
      "inputs": [
        {
          "internalType": "uint256",
          "name": "oid",
          "type": "uint256"
        }
      ],
      "name": "fv",
      "outputs": [
        {
          "internalType": "uint256",
          "name": "",
          "type": "uint256"
        },
        {
          "internalType": "string",
          "name": "",
          "type": "string"
        },
        {
          "internalType": "string",
          "name": "",
          "type": "string"
        },
        {
          "internalType": "uint256",
          "name": "",
          "type": "uint256"
        }
      ],
      "stateMutability": "view",
      "type": "function"
    },
    {
      "inputs": [
        {
          "internalType": "uint256",
          "name": "oid",
          "type": "uint256"
        }
      ],
      "name": "handOverOrder",
      "outputs": [
        {
          "internalType": "uint256",
          "name": "",
          "type": "uint256"
        }
      ],
      "stateMutability": "nonpayable",
      "type": "function"
    },
    {
      "inputs": [
        {
          "internalType": "uint256",
          "name": "OID",
          "type": "uint256"
        }
      ],
      "name": "packedOrder",
      "outputs": [],
      "stateMutability": "nonpayable",
      "type": "function"
    },
    {
      "inputs": [
        {
          "internalType": "uint256",
          "name": "oid",
          "type": "uint256"
        }
      ],
      "name": "sendInvoice",
      "outputs": [
        {
          "internalType": "uint256",
          "name": "",
          "type": "uint256"
        },
        {
          "internalType": "uint256",
          "name": "",
          "type": "uint256"
        },
        {
          "internalType": "string",
          "name": "",
          "type": "string"
        },
        {
          "internalType": "uint256",
          "name": "",
          "type": "uint256"
        },
        {
          "internalType": "address",
          "name": "",
          "type": "address"
        },
        {
          "internalType": "bool",
          "name": "",
          "type": "bool"
        }
      ],
      "stateMutability": "view",
      "type": "function"
    }
  ],
  "bytecode": "0x60806040526001805560016002553480156200001a57600080fd5b50604051620023e9380380620023e98339818101604052810190620000409190620000f1565b806000806101000a81548173ffffffffffffffffffffffffffffffffffffffff021916908373ffffffffffffffffffffffffffffffffffffffff1602179055505062000123565b600080fd5b600073ffffffffffffffffffffffffffffffffffffffff82169050919050565b6000620000b9826200008c565b9050919050565b620000cb81620000ac565b8114620000d757600080fd5b50565b600081519050620000eb81620000c0565b92915050565b6000602082840312156200010a576200010962000087565b5b60006200011a84828501620000da565b91505092915050565b6122b680620001336000396000f3fe60806040526004361061009c5760003560e01c8063c282a3b511610064578063c282a3b5146101ba578063c5cc426a146101fe578063dba3f6aa1461023d578063e041bc4a14610280578063f28ea1c1146102c2578063f7aed773146102eb5761009c565b806328c0227c146100a1578063703eaa22146100de57806378e47ab61461010757806382e566d014610138578063ac23a7431461017a575b600080fd5b3480156100ad57600080fd5b506100c860048036038101906100c39190611637565b61032e565b6040516100d59190611673565b60405180910390f35b3480156100ea57600080fd5b5061010560048036038101906101009190611637565b61040c565b005b610121600480360381019061011c919061186f565b6104cc565b60405161012f929190611931565b60405180910390f35b34801561014457600080fd5b5061015f600480360381019061015a9190611637565b610825565b604051610171969594939291906119f4565b60405180910390f35b34801561018657600080fd5b506101a1600480360381019061019c9190611637565b610aba565b6040516101b19493929190611a63565b60405180910390f35b3480156101c657600080fd5b506101e160048036038101906101dc9190611637565b610c42565b6040516101f5989796959493929190611ab6565b60405180910390f35b34801561020a57600080fd5b5061022560048036038101906102209190611637565b610d59565b60405161023493929190611b3b565b60405180910390f35b34801561024957600080fd5b50610264600480360381019061025f9190611637565b610e5b565b6040516102779796959493929190611b79565b60405180910390f35b34801561028c57600080fd5b506102a760048036038101906102a29190611637565b610fda565b6040516102b996959493929190611bf6565b60405180910390f35b3480156102ce57600080fd5b506102e960048036038101906102e49190611c5e565b61113b565b005b3480156102f757600080fd5b50610312600480360381019061030d9190611637565b61145e565b6040516103259796959493929190611b79565b60405180910390f35b60008060009054906101000a900473ffffffffffffffffffffffffffffffffffffffff1673ffffffffffffffffffffffffffffffffffffffff163373ffffffffffffffffffffffffffffffffffffffff16146103bf576040517f08c379a00000000000000000000000000000000000000000000000000000000081526004016103b690611d35565b60405180910390fd5b60016005600084815260200190815260200160002060040160166101000a81548160ff02191690831515021790555060056000838152602001908152602001600020600001549050919050565b60008054906101000a900473ffffffffffffffffffffffffffffffffffffffff1673ffffffffffffffffffffffffffffffffffffffff163373ffffffffffffffffffffffffffffffffffffffff161461049a576040517f08c379a000000000000000000000000000000000000000000000000000000000815260040161049190611d35565b60405180910390fd5b60016005600083815260200190815260200160002060040160156101000a81548160ff02191690831515021790555050565b60008060016003600089815260200190815260200160002060030160006101000a81548160ff021916908315150217905550856003600089815260200190815260200160002060050160006101000a81548173ffffffffffffffffffffffffffffffffffffffff021916908373ffffffffffffffffffffffffffffffffffffffff1602179055506000600360008981526020019081526020016000206004015490506040518061010001604052806002548152602001898152602001600360008b815260200190815260200160002060010180546105a990611d84565b80601f01602080910402602001604051908101604052809291908181526020018280546105d590611d84565b80156106225780601f106105f757610100808354040283529160200191610622565b820191906000526020600020905b81548152906001019060200180831161060557829003601f168201915b505050505081526020018281526020018873ffffffffffffffffffffffffffffffffffffffff16815260200160011515815260200160001515815260200160001515815250600560006002548152602001908152602001600020600082015181600001556020820151816001015560408201518160020190816106a59190611f61565b506060820151816003015560808201518160040160006101000a81548173ffffffffffffffffffffffffffffffffffffffff021916908373ffffffffffffffffffffffffffffffffffffffff16021790555060a08201518160040160146101000a81548160ff02191690831515021790555060c08201518160040160156101000a81548160ff02191690831515021790555060e08201518160040160166101000a81548160ff021916908315150217905550905050604051806080016040528060025481526020018781526020018681526020018564ffffffffff168152506004600060025481526020019081526020016000206000820151816000015560208201518160010190816107b89190611f61565b5060408201518160020190816107ce9190611f61565b5060608201518160030155905050600260008154809291906107ef90612062565b91905055508060008054906101000a900473ffffffffffffffffffffffffffffffffffffffff1692509250509550959350505050565b6000606080600080600080600360008981526020019081526020016000206000015411610887576040517f08c379a000000000000000000000000000000000000000000000000000000000815260040161087e906120f6565b60405180910390fd5b60008711801561089957506001548711155b6108d8576040517f08c379a00000000000000000000000000000000000000000000000000000000081526004016108cf90612162565b60405180910390fd5b600360008881526020019081526020016000206000015460036000898152602001908152602001600020600101600360008a8152602001908152602001600020600201600360008b815260200190815260200160002060030160009054906101000a900460ff16600360008c815260200190815260200160002060050160009054906101000a900473ffffffffffffffffffffffffffffffffffffffff16600360008d81526020019081526020016000206006015484805461099990611d84565b80601f01602080910402602001604051908101604052809291908181526020018280546109c590611d84565b8015610a125780601f106109e757610100808354040283529160200191610a12565b820191906000526020600020905b8154815290600101906020018083116109f557829003601f168201915b50505050509450838054610a2590611d84565b80601f0160208091040260200160405190810160405280929190818152602001828054610a5190611d84565b8015610a9e5780601f10610a7357610100808354040283529160200191610a9e565b820191906000526020600020905b815481529060010190602001808311610a8157829003601f168201915b5050505050935095509550955095509550955091939550919395565b60006060806000600560008681526020019081526020016000206000015460046000878152602001908152602001600020600201600460008881526020019081526020016000206001016004600089815260200190815260200160002060030154828054610b2790611d84565b80601f0160208091040260200160405190810160405280929190818152602001828054610b5390611d84565b8015610ba05780601f10610b7557610100808354040283529160200191610ba0565b820191906000526020600020905b815481529060010190602001808311610b8357829003601f168201915b50505050509250818054610bb390611d84565b80601f0160208091040260200160405190810160405280929190818152602001828054610bdf90611d84565b8015610c2c5780601f10610c0157610100808354040283529160200191610c2c565b820191906000526020600020905b815481529060010190602001808311610c0f57829003601f168201915b5050505050915093509350935093509193509193565b6005602052806000526040600020600091509050806000015490806001015490806002018054610c7190611d84565b80601f0160208091040260200160405190810160405280929190818152602001828054610c9d90611d84565b8015610cea5780601f10610cbf57610100808354040283529160200191610cea565b820191906000526020600020905b815481529060010190602001808311610ccd57829003601f168201915b5050505050908060030154908060040160009054906101000a900473ffffffffffffffffffffffffffffffffffffffff16908060040160149054906101000a900460ff16908060040160159054906101000a900460ff16908060040160169054906101000a900460ff16905088565b60606000806005600085815260200190815260200160002060020160056000868152602001908152602001600020600301546005600087815260200190815260200160002060040160009054906101000a900473ffffffffffffffffffffffffffffffffffffffff16828054610dce90611d84565b80601f0160208091040260200160405190810160405280929190818152602001828054610dfa90611d84565b8015610e475780601f10610e1c57610100808354040283529160200191610e47565b820191906000526020600020905b815481529060010190602001808311610e2a57829003601f168201915b505050505092509250925092509193909250565b6003602052806000526040600020600091509050806000015490806001018054610e8490611d84565b80601f0160208091040260200160405190810160405280929190818152602001828054610eb090611d84565b8015610efd5780601f10610ed257610100808354040283529160200191610efd565b820191906000526020600020905b815481529060010190602001808311610ee057829003601f168201915b505050505090806002018054610f1290611d84565b80601f0160208091040260200160405190810160405280929190818152602001828054610f3e90611d84565b8015610f8b5780601f10610f6057610100808354040283529160200191610f8b565b820191906000526020600020905b815481529060010190602001808311610f6e57829003601f168201915b5050505050908060030160009054906101000a900460ff16908060040154908060050160009054906101000a900473ffffffffffffffffffffffffffffffffffffffff16908060060154905087565b6000806060600080600060056000888152602001908152602001600020600001546005600089815260200190815260200160002060010154600560008a8152602001908152602001600020600201600560008b815260200190815260200160002060030154600560008c815260200190815260200160002060040160009054906101000a900473ffffffffffffffffffffffffffffffffffffffff16600560008d815260200190815260200160002060040160159054906101000a900460ff168380546110a690611d84565b80601f01602080910402602001604051908101604052809291908181526020018280546110d290611d84565b801561111f5780601f106110f45761010080835404028352916020019161111f565b820191906000526020600020905b81548152906001019060200180831161110257829003601f168201915b5050505050935095509550955095509550955091939550919395565b6040518060e001604052806001548152602001848152602001838152602001600015158152602001828152602001600073ffffffffffffffffffffffffffffffffffffffff1681526020014281525060076000820151816000015560208201518160010190816111ab9190611f61565b5060408201518160020190816111c19190611f61565b5060608201518160030160006101000a81548160ff0219169083151502179055506080820151816004015560a08201518160050160006101000a81548173ffffffffffffffffffffffffffffffffffffffff021916908373ffffffffffffffffffffffffffffffffffffffff16021790555060c08201518160060155905050600760036000600154815260200190815260200160002060008201548160000155600182018160010190816112759190612198565b506002820181600201908161128a9190612198565b506003820160009054906101000a900460ff168160030160006101000a81548160ff021916908315150217905550600482015481600401556005820160009054906101000a900473ffffffffffffffffffffffffffffffffffffffff168160050160006101000a81548173ffffffffffffffffffffffffffffffffffffffff021916908373ffffffffffffffffffffffffffffffffffffffff1602179055506006820154816006015590505060066007908060018154018082558091505060019003906000526020600020906007020160009091909190915060008201548160000155600182018160010190816113819190612198565b50600282018160020190816113969190612198565b506003820160009054906101000a900460ff168160030160006101000a81548160ff021916908315150217905550600482015481600401556005820160009054906101000a900473ffffffffffffffffffffffffffffffffffffffff168160050160006101000a81548173ffffffffffffffffffffffffffffffffffffffff021916908373ffffffffffffffffffffffffffffffffffffffff1602179055506006820154816006015550506001600081548092919061145490612062565b9190505550505050565b6006818154811061146e57600080fd5b906000526020600020906007020160009150905080600001549080600101805461149790611d84565b80601f01602080910402602001604051908101604052809291908181526020018280546114c390611d84565b80156115105780601f106114e557610100808354040283529160200191611510565b820191906000526020600020905b8154815290600101906020018083116114f357829003601f168201915b50505050509080600201805461152590611d84565b80601f016020809104026020016040519081016040528092919081815260200182805461155190611d84565b801561159e5780601f106115735761010080835404028352916020019161159e565b820191906000526020600020905b81548152906001019060200180831161158157829003601f168201915b5050505050908060030160009054906101000a900460ff16908060040154908060050160009054906101000a900473ffffffffffffffffffffffffffffffffffffffff16908060060154905087565b6000604051905090565b600080fd5b600080fd5b6000819050919050565b61161481611601565b811461161f57600080fd5b50565b6000813590506116318161160b565b92915050565b60006020828403121561164d5761164c6115f7565b5b600061165b84828501611622565b91505092915050565b61166d81611601565b82525050565b60006020820190506116886000830184611664565b92915050565b600073ffffffffffffffffffffffffffffffffffffffff82169050919050565b60006116b98261168e565b9050919050565b6116c9816116ae565b81146116d457600080fd5b50565b6000813590506116e6816116c0565b92915050565b600080fd5b600080fd5b6000601f19601f8301169050919050565b7f4e487b7100000000000000000000000000000000000000000000000000000000600052604160045260246000fd5b61173f826116f6565b810181811067ffffffffffffffff8211171561175e5761175d611707565b5b80604052505050565b60006117716115ed565b905061177d8282611736565b919050565b600067ffffffffffffffff82111561179d5761179c611707565b5b6117a6826116f6565b9050602081019050919050565b82818337600083830152505050565b60006117d56117d084611782565b611767565b9050828152602081018484840111156117f1576117f06116f1565b5b6117fc8482856117b3565b509392505050565b600082601f830112611819576118186116ec565b5b81356118298482602086016117c2565b91505092915050565b600064ffffffffff82169050919050565b61184c81611832565b811461185757600080fd5b50565b60008135905061186981611843565b92915050565b600080600080600060a0868803121561188b5761188a6115f7565b5b600061189988828901611622565b95505060206118aa888289016116d7565b945050604086013567ffffffffffffffff8111156118cb576118ca6115fc565b5b6118d788828901611804565b935050606086013567ffffffffffffffff8111156118f8576118f76115fc565b5b61190488828901611804565b92505060806119158882890161185a565b9150509295509295909350565b61192b816116ae565b82525050565b60006040820190506119466000830185611664565b6119536020830184611922565b9392505050565b600081519050919050565b600082825260208201905092915050565b60005b83811015611994578082015181840152602081019050611979565b60008484015250505050565b60006119ab8261195a565b6119b58185611965565b93506119c5818560208601611976565b6119ce816116f6565b840191505092915050565b60008115159050919050565b6119ee816119d9565b82525050565b600060c082019050611a096000830189611664565b8181036020830152611a1b81886119a0565b90508181036040830152611a2f81876119a0565b9050611a3e60608301866119e5565b611a4b6080830185611922565b611a5860a0830184611664565b979650505050505050565b6000608082019050611a786000830187611664565b8181036020830152611a8a81866119a0565b90508181036040830152611a9e81856119a0565b9050611aad6060830184611664565b95945050505050565b600061010082019050611acc600083018b611664565b611ad9602083018a611664565b8181036040830152611aeb81896119a0565b9050611afa6060830188611664565b611b076080830187611922565b611b1460a08301866119e5565b611b2160c08301856119e5565b611b2e60e08301846119e5565b9998505050505050505050565b60006060820190508181036000830152611b5581866119a0565b9050611b646020830185611664565b611b716040830184611922565b949350505050565b600060e082019050611b8e600083018a611664565b8181036020830152611ba081896119a0565b90508181036040830152611bb481886119a0565b9050611bc360608301876119e5565b611bd06080830186611664565b611bdd60a0830185611922565b611bea60c0830184611664565b98975050505050505050565b600060c082019050611c0b6000830189611664565b611c186020830188611664565b8181036040830152611c2a81876119a0565b9050611c396060830186611664565b611c466080830185611922565b611c5360a08301846119e5565b979650505050505050565b600080600060608486031215611c7757611c766115f7565b5b600084013567ffffffffffffffff811115611c9557611c946115fc565b5b611ca186828701611804565b935050602084013567ffffffffffffffff811115611cc257611cc16115fc565b5b611cce86828701611804565b9250506040611cdf86828701611622565b9150509250925092565b7f4e6f742053656c6c657200000000000000000000000000000000000000000000600082015250565b6000611d1f600a83611965565b9150611d2a82611ce9565b602082019050919050565b60006020820190508181036000830152611d4e81611d12565b9050919050565b7f4e487b7100000000000000000000000000000000000000000000000000000000600052602260045260246000fd5b60006002820490506001821680611d9c57607f821691505b602082108103611daf57611dae611d55565b5b50919050565b60008190508160005260206000209050919050565b60006020601f8301049050919050565b600082821b905092915050565b600060088302611e177fffffffffffffffffffffffffffffffffffffffffffffffffffffffffffffffff82611dda565b611e218683611dda565b95508019841693508086168417925050509392505050565b6000819050919050565b6000611e5e611e59611e5484611601565b611e39565b611601565b9050919050565b6000819050919050565b611e7883611e43565b611e8c611e8482611e65565b848454611de7565b825550505050565b600090565b611ea1611e94565b611eac818484611e6f565b505050565b5b81811015611ed057611ec5600082611e99565b600181019050611eb2565b5050565b601f821115611f1557611ee681611db5565b611eef84611dca565b81016020851015611efe578190505b611f12611f0a85611dca565b830182611eb1565b50505b505050565b600082821c905092915050565b6000611f3860001984600802611f1a565b1980831691505092915050565b6000611f518383611f27565b9150826002028217905092915050565b611f6a8261195a565b67ffffffffffffffff811115611f8357611f82611707565b5b611f8d8254611d84565b611f98828285611ed4565b600060209050601f831160018114611fcb5760008415611fb9578287015190505b611fc38582611f45565b86555061202b565b601f198416611fd986611db5565b60005b8281101561200157848901518255600182019150602085019450602081019050611fdc565b8683101561201e578489015161201a601f891682611f27565b8355505b6001600288020188555050505b505050505050565b7f4e487b7100000000000000000000000000000000000000000000000000000000600052601160045260246000fd5b600061206d82611601565b91507fffffffffffffffffffffffffffffffffffffffffffffffffffffffffffffffff820361209f5761209e612033565b5b600182019050919050565b7f6e6f2070726f6475637400000000000000000000000000000000000000000000600082015250565b60006120e0600a83611965565b91506120eb826120aa565b602082019050919050565b6000602082019050818103600083015261210f816120d3565b9050919050565b7f696e76616c69642050726f647563745f49440000000000000000000000000000600082015250565b600061214c601283611965565b915061215782612116565b602082019050919050565b6000602082019050818103600083015261217b8161213f565b9050919050565b60008154905061219181611d84565b9050919050565b8181036121a657505061227e565b6121af82612182565b67ffffffffffffffff8111156121c8576121c7611707565b5b6121d28254611d84565b6121dd828285611ed4565b6000601f83116001811461220c57600084156121fa578287015490505b6122048582611f45565b865550612277565b601f19841661221a87611db5565b965061222586611db5565b60005b8281101561224d57848901548255600182019150600185019450602081019050612228565b8683101561226a5784890154612266601f891682611f27565b8355505b6001600288020188555050505b5050505050505b56fea26469706673582212208ae544c0cf10b70ae4a02b502bdfb572d8341ef30ee3f913bbbc3aa8c06a046064736f6c63430008110033",
  "immutableReferences": {},
  "source": "// SPDX-License-Identifier: MIT\r\npragma solidity 0.8.17;\r\n\r\ncontract Seller {\r\n// The seller's address , the seller will be the contract's owner\r\n    address owner;\r\n    uint product_id=1;\r\n    uint order_id=1;\r\n// The Product struct\r\nstruct Product {\r\n    uint id;\r\n    string name;\r\n    string desc;\r\n    bool sold;\r\n    uint pp;\r\n    address buyer;\r\n    uint timestamp;\r\n}\r\n// The Buyer struct\r\nstruct Buyer {\r\n    uint oid;\r\n    string name;\r\n    string addr;   \r\n    uint ph;\r\n\r\n}\r\n\r\n// The Order struct\r\nstruct Order {\r\n    uint pid;\r\n    uint oid;\r\n    string name;\r\n    // uint quantity;\r\n    // uint number;\r\n    // uint price;\r\n    uint pp;\r\n    // uint safepay;\r\n    address addr;\r\n    bool odd;\r\n    bool packd;\r\n    bool handOvr;\r\n    \r\n}\r\n// Mapping \r\nmapping (uint256 => Product) public Products;\r\nmapping (uint => Buyer) internal BuyerDetails;\r\nmapping (uint => Order) public Ods;\r\n// Array to store products\r\nProduct[] public products_list;\r\nProduct private productInfo;\r\n\r\nconstructor(address _owner) {\r\n   \r\n    owner = _owner;\r\n}\r\n//////////MODIFIER///////////////\r\nmodifier onlySeller() {\r\n    require(msg.sender == owner,\"Not Seller\");\r\n    _;\r\n\r\n}   \r\n\r\n// Function to add prodcut\r\nfunction addProduct(\r\nstring memory name,\r\nstring memory desc,\r\nuint pp) public\r\n{   \r\n    \r\n    productInfo=Product(product_id,name,desc,false,pp,address(0),block.timestamp);\r\n    Products[product_id]=(productInfo);\r\n    products_list.push(productInfo);\r\n    product_id++;\r\n\r\n}\r\n// Function to requeest Quote for products giving Product ID\r\nfunction requestQuote(uint _ProductID) external view returns (uint, \r\n    string memory, \r\n    string memory, \r\n    bool, \r\n    address,\r\n    uint) {\r\n        \r\n    require(Products[_ProductID].id > 0, \"no product\");\r\n    require(_ProductID > 0 && _ProductID <=  product_id, \"invalid Product_ID\");\r\n\r\n        return (Products[_ProductID].id,\r\n        Products[_ProductID].name,\r\n        Products[_ProductID].desc,\r\n        Products[_ProductID].sold,\r\n        Products[_ProductID].buyer,\r\n        Products[_ProductID].timestamp);\r\n\r\n}\r\n\r\nfunction queryOrder(uint number)  external view returns\r\n(\r\nstring memory name,\r\nuint pp,\r\naddress buyer\r\n) {\r\n    // Return the order data\r\n    return(Ods[number].name, \r\n    Ods[number].pp, \r\n    Ods[number].addr);\r\n}\r\nfunction Buy(uint pID,address _Buyer,string memory _name,string memory _address,uint40 _phone) public payable returns (uint, address) {\r\n        Products[pID].sold = true;\r\n        Products[pID].buyer = _Buyer;\r\n        uint toPay = Products[pID].pp;\r\n        Ods[order_id] = Order(order_id,pID,Products[pID].name,toPay,_Buyer,true,false,false);\r\n        BuyerDetails[order_id] = Buyer(order_id,_name,_address,_phone);\r\n        order_id++;\r\n        return (toPay, owner);\r\n}\r\n\r\nfunction fv(uint oid) external view returns \r\n(uint,\r\nstring memory,\r\nstring memory,\r\nuint){\r\n        return (Ods[oid].pid,\r\n        BuyerDetails[oid].addr,\r\n        BuyerDetails[oid].name,\r\n        BuyerDetails[oid].ph);\r\n}\r\nfunction handOverOrder(uint oid) external onlySeller returns (uint) {\r\n        Ods[oid].handOvr = true;\r\n        return (Ods[oid].pid);\r\n}\r\nfunction packedOrder(uint OID) public onlySeller {\r\n        Ods[OID].packd = true;\r\n}\r\n\r\nfunction sendInvoice(uint oid) external view returns(\r\nuint,\r\nuint,\r\nstring memory,\r\nuint,\r\naddress,\r\nbool \r\n) {     \r\n    return (Ods[oid].pid,\r\n    Ods[oid].oid,\r\n    Ods[oid].name,\r\n    Ods[oid].pp,\r\n    Ods[oid].addr,\r\n    Ods[oid].packd);\r\n\r\n}\r\n\r\n}",
  "sourcePath": "C:\\Users\\sakha\\OneDrive\\Documents\\Logistics_Tracing_App\\contracts\\Seller.sol",
  "compiler": {
    "name": "solc",
    "version": "0.8.17+commit.8df45f5f.Emscripten.clang"
  },
  "schemaVersion": "3.4.9",
  "updatedAt": "2022-10-27T08:47:57.668Z",
  "devdoc": {
    "kind": "dev",
    "methods": {},
    "version": 1
  },
  "userdoc": {
    "kind": "user",
    "methods": {},
    "version": 1
  }
}